{"abi":[{"type":"constructor","inputs":[],"stateMutability":"nonpayable"},{"type":"function","name":"allowance","inputs":[{"name":"owner","type":"address","internalType":"address"},{"name":"spender","type":"address","internalType":"address"}],"outputs":[{"name":"","type":"uint256","internalType":"uint256"}],"stateMutability":"view"},{"type":"function","name":"approve","inputs":[{"name":"spender","type":"address","internalType":"address"},{"name":"amount","type":"uint256","internalType":"uint256"}],"outputs":[{"name":"","type":"bool","internalType":"bool"}],"stateMutability":"nonpayable"},{"type":"function","name":"balanceOf","inputs":[{"name":"account","type":"address","internalType":"address"}],"outputs":[{"name":"","type":"uint256","internalType":"uint256"}],"stateMutability":"view"},{"type":"function","name":"burn","inputs":[{"name":"account","type":"address","internalType":"address"},{"name":"value","type":"uint256","internalType":"uint256"}],"outputs":[{"name":"","type":"bool","internalType":"bool"}],"stateMutability":"nonpayable"},{"type":"function","name":"decimals","inputs":[],"outputs":[{"name":"","type":"uint8","internalType":"uint8"}],"stateMutability":"view"},{"type":"function","name":"name","inputs":[],"outputs":[{"name":"","type":"string","internalType":"string"}],"stateMutability":"view"},{"type":"function","name":"symbol","inputs":[],"outputs":[{"name":"","type":"string","internalType":"string"}],"stateMutability":"view"},{"type":"function","name":"totalSupply","inputs":[],"outputs":[{"name":"","type":"uint256","internalType":"uint256"}],"stateMutability":"view"},{"type":"function","name":"transfer","inputs":[{"name":"to","type":"address","internalType":"address"},{"name":"value","type":"uint256","internalType":"uint256"}],"outputs":[{"name":"","type":"bool","internalType":"bool"}],"stateMutability":"nonpayable"},{"type":"function","name":"transferFrom","inputs":[{"name":"from","type":"address","internalType":"address"},{"name":"to","type":"address","internalType":"address"},{"name":"amount","type":"uint256","internalType":"uint256"}],"outputs":[{"name":"","type":"bool","internalType":"bool"}],"stateMutability":"nonpayable"},{"type":"event","name":"Approval","inputs":[{"name":"owner","type":"address","indexed":true,"internalType":"address"},{"name":"spender","type":"address","indexed":true,"internalType":"address"},{"name":"value","type":"uint256","indexed":false,"internalType":"uint256"}],"anonymous":false},{"type":"event","name":"Transfer","inputs":[{"name":"from","type":"address","indexed":true,"internalType":"address"},{"name":"to","type":"address","indexed":true,"internalType":"address"},{"name":"value","type":"uint256","indexed":false,"internalType":"uint256"}],"anonymous":false}],"bytecode":{"object":"0x6080604052601260025f6101000a81548160ff021916908360ff16021790555034801561002a575f5ffd5b506040518060400160405280600b81526020017f4275676779546f6b656e330000000000000000000000000000000000000000008152505f908161006e9190610424565b506040518060400160405280600481526020017f4255473300000000000000000000000000000000000000000000000000000000815250600190816100b39190610424565b503360065f6101000a81548173ffffffffffffffffffffffffffffffffffffffff021916908373ffffffffffffffffffffffffffffffffffffffff16021790555061010e3369d3c21bcecceda100000061011360201b60201c565b61057b565b8060045f8473ffffffffffffffffffffffffffffffffffffffff1673ffffffffffffffffffffffffffffffffffffffff1681526020019081526020015f205f82825461015f9190610520565b925050819055508060035f8282546101779190610520565b925050819055508173ffffffffffffffffffffffffffffffffffffffff165f73ffffffffffffffffffffffffffffffffffffffff167fddf252ad1be2c89b69c2b068fc378daa952ba7f163c4a11628f55a4df523b3ef836040516101db9190610562565b60405180910390a35050565b5f81519050919050565b7f4e487b71000000000000000000000000000000000000000000000000000000005f52604160045260245ffd5b7f4e487b71000000000000000000000000000000000000000000000000000000005f52602260045260245ffd5b5f600282049050600182168061026257607f821691505b6020821081036102755761027461021e565b5b50919050565b5f819050815f5260205f209050919050565b5f6020601f8301049050919050565b5f82821b905092915050565b5f600883026102d77fffffffffffffffffffffffffffffffffffffffffffffffffffffffffffffffff8261029c565b6102e1868361029c565b95508019841693508086168417925050509392505050565b5f819050919050565b5f819050919050565b5f61032561032061031b846102f9565b610302565b6102f9565b9050919050565b5f819050919050565b61033e8361030b565b61035261034a8261032c565b8484546102a8565b825550505050565b5f5f905090565b61036961035a565b610374818484610335565b505050565b5b818110156103975761038c5f82610361565b60018101905061037a565b5050565b601f8211156103dc576103ad8161027b565b6103b68461028d565b810160208510156103c5578190505b6103d96103d18561028d565b830182610379565b50505b505050565b5f82821c905092915050565b5f6103fc5f19846008026103e1565b1980831691505092915050565b5f61041483836103ed565b9150826002028217905092915050565b61042d826101e7565b67ffffffffffffffff811115610446576104456101f1565b5b610450825461024b565b61045b82828561039b565b5f60209050601f83116001811461048c575f841561047a578287015190505b6104848582610409565b8655506104eb565b601f19841661049a8661027b565b5f5b828110156104c15784890151825560018201915060208501945060208101905061049c565b868310156104de57848901516104da601f8916826103ed565b8355505b6001600288020188555050505b505050505050565b7f4e487b71000000000000000000000000000000000000000000000000000000005f52601160045260245ffd5b5f61052a826102f9565b9150610535836102f9565b925082820190508082111561054d5761054c6104f3565b5b92915050565b61055c816102f9565b82525050565b5f6020820190506105755f830184610553565b92915050565b6113ac806105885f395ff3fe608060405234801561000f575f5ffd5b506004361061009c575f3560e01c806370a082311161006457806370a082311461015a57806395d89b411461018a5780639dc29fac146101a8578063a9059cbb146101d8578063dd62ed3e146102085761009c565b806306fdde03146100a0578063095ea7b3146100be57806318160ddd146100ee57806323b872dd1461010c578063313ce5671461013c575b5f5ffd5b6100a8610238565b6040516100b59190610ce9565b60405180910390f35b6100d860048036038101906100d39190610d9a565b6102c3565b6040516100e59190610df2565b60405180910390f35b6100f66102d9565b6040516101039190610e1a565b60405180910390f35b61012660048036038101906101219190610e33565b6102e2565b6040516101339190610df2565b60405180910390f35b610144610304565b6040516101519190610e9e565b60405180910390f35b610174600480360381019061016f9190610eb7565b610316565b6040516101819190610e1a565b60405180910390f35b61019261035c565b60405161019f9190610ce9565b60405180910390f35b6101c260048036038101906101bd9190610d9a565b6103e8565b6040516101cf9190610df2565b60405180910390f35b6101f260048036038101906101ed9190610d9a565b61063f565b6040516101ff9190610df2565b60405180910390f35b610222600480360381019061021d9190610ee2565b6106c3565b60405161022f9190610e1a565b60405180910390f35b5f805461024490610f4d565b80601f016020809104026020016040519081016040528092919081815260200182805461027090610f4d565b80156102bb5780601f10610292576101008083540402835291602001916102bb565b820191905f5260205f20905b81548152906001019060200180831161029e57829003601f168201915b505050505081565b5f6102cf338484610745565b6001905092915050565b5f600354905090565b5f6102ee843384610908565b6102f9848484610a0e565b600190509392505050565b60025f9054906101000a900460ff1681565b5f60045f8373ffffffffffffffffffffffffffffffffffffffff1673ffffffffffffffffffffffffffffffffffffffff1681526020019081526020015f20549050919050565b6001805461036990610f4d565b80601f016020809104026020016040519081016040528092919081815260200182805461039590610f4d565b80156103e05780601f106103b7576101008083540402835291602001916103e0565b820191905f5260205f20905b8154815290600101906020018083116103c357829003601f168201915b505050505081565b5f60065f9054906101000a900473ffffffffffffffffffffffffffffffffffffffff1673ffffffffffffffffffffffffffffffffffffffff163373ffffffffffffffffffffffffffffffffffffffff1614610478576040517f08c379a000000000000000000000000000000000000000000000000000000000815260040161046f90610fc7565b60405180910390fd5b5f73ffffffffffffffffffffffffffffffffffffffff168373ffffffffffffffffffffffffffffffffffffffff16036104e6576040517f08c379a00000000000000000000000000000000000000000000000000000000081526004016104dd9061102f565b60405180910390fd5b5f60045f8573ffffffffffffffffffffffffffffffffffffffff1673ffffffffffffffffffffffffffffffffffffffff1681526020019081526020015f205490508281101561056a576040517f08c379a000000000000000000000000000000000000000000000000000000000815260040161056190611097565b60405180910390fd5b828161057691906110e2565b60045f8673ffffffffffffffffffffffffffffffffffffffff1673ffffffffffffffffffffffffffffffffffffffff1681526020019081526020015f20819055508260035f8282546105c891906110e2565b925050819055505f73ffffffffffffffffffffffffffffffffffffffff168473ffffffffffffffffffffffffffffffffffffffff167fddf252ad1be2c89b69c2b068fc378daa952ba7f163c4a11628f55a4df523b3ef8560405161062c9190610e1a565b60405180910390a3600191505092915050565b5f5f73ffffffffffffffffffffffffffffffffffffffff163373ffffffffffffffffffffffffffffffffffffffff16036106ae576040517f08c379a00000000000000000000000000000000000000000000000000000000081526004016106a59061115f565b60405180910390fd5b6106b9338484610a0e565b6001905092915050565b5f60055f8473ffffffffffffffffffffffffffffffffffffffff1673ffffffffffffffffffffffffffffffffffffffff1681526020019081526020015f205f8373ffffffffffffffffffffffffffffffffffffffff1673ffffffffffffffffffffffffffffffffffffffff1681526020019081526020015f2054905092915050565b5f73ffffffffffffffffffffffffffffffffffffffff168373ffffffffffffffffffffffffffffffffffffffff16036107b3576040517f08c379a00000000000000000000000000000000000000000000000000000000081526004016107aa906111c7565b60405180910390fd5b5f73ffffffffffffffffffffffffffffffffffffffff168273ffffffffffffffffffffffffffffffffffffffff1603610821576040517f08c379a00000000000000000000000000000000000000000000000000000000081526004016108189061122f565b60405180910390fd5b8060055f8573ffffffffffffffffffffffffffffffffffffffff1673ffffffffffffffffffffffffffffffffffffffff1681526020019081526020015f205f8473ffffffffffffffffffffffffffffffffffffffff1673ffffffffffffffffffffffffffffffffffffffff1681526020019081526020015f20819055508173ffffffffffffffffffffffffffffffffffffffff168373ffffffffffffffffffffffffffffffffffffffff167f8c5be1e5ebec7d5bd14f71427d1e84f3dd0314c0f7b2291e5b200ac8c7c3b925836040516108fb9190610e1a565b60405180910390a3505050565b5f61091384846106c3565b90507fffffffffffffffffffffffffffffffffffffffffffffffffffffffffffffffff8114610a08578181101561097f576040517f08c379a0000000000000000000000000000000000000000000000000000000008152600401610976906112bd565b60405180910390fd5b818161098b91906110e2565b60055f8673ffffffffffffffffffffffffffffffffffffffff1673ffffffffffffffffffffffffffffffffffffffff1681526020019081526020015f205f8573ffffffffffffffffffffffffffffffffffffffff1673ffffffffffffffffffffffffffffffffffffffff1681526020019081526020015f20819055505b50505050565b5f73ffffffffffffffffffffffffffffffffffffffff168373ffffffffffffffffffffffffffffffffffffffff1603610a7c576040517f08c379a0000000000000000000000000000000000000000000000000000000008152600401610a739061115f565b60405180910390fd5b5f73ffffffffffffffffffffffffffffffffffffffff168273ffffffffffffffffffffffffffffffffffffffff1603610aea576040517f08c379a0000000000000000000000000000000000000000000000000000000008152600401610ae190611325565b60405180910390fd5b5f60045f8573ffffffffffffffffffffffffffffffffffffffff1673ffffffffffffffffffffffffffffffffffffffff1681526020019081526020015f2054905081811015610b6e576040517f08c379a0000000000000000000000000000000000000000000000000000000008152600401610b6590611097565b60405180910390fd5b8181610b7a91906110e2565b60045f8673ffffffffffffffffffffffffffffffffffffffff1673ffffffffffffffffffffffffffffffffffffffff1681526020019081526020015f20819055508160045f8573ffffffffffffffffffffffffffffffffffffffff1673ffffffffffffffffffffffffffffffffffffffff1681526020019081526020015f205f828254610c079190611343565b925050819055508273ffffffffffffffffffffffffffffffffffffffff168473ffffffffffffffffffffffffffffffffffffffff167fddf252ad1be2c89b69c2b068fc378daa952ba7f163c4a11628f55a4df523b3ef84604051610c6b9190610e1a565b60405180910390a350505050565b5f81519050919050565b5f82825260208201905092915050565b8281835e5f83830152505050565b5f601f19601f8301169050919050565b5f610cbb82610c79565b610cc58185610c83565b9350610cd5818560208601610c93565b610cde81610ca1565b840191505092915050565b5f6020820190508181035f830152610d018184610cb1565b905092915050565b5f5ffd5b5f73ffffffffffffffffffffffffffffffffffffffff82169050919050565b5f610d3682610d0d565b9050919050565b610d4681610d2c565b8114610d50575f5ffd5b50565b5f81359050610d6181610d3d565b92915050565b5f819050919050565b610d7981610d67565b8114610d83575f5ffd5b50565b5f81359050610d9481610d70565b92915050565b5f5f60408385031215610db057610daf610d09565b5b5f610dbd85828601610d53565b9250506020610dce85828601610d86565b9150509250929050565b5f8115159050919050565b610dec81610dd8565b82525050565b5f602082019050610e055f830184610de3565b92915050565b610e1481610d67565b82525050565b5f602082019050610e2d5f830184610e0b565b92915050565b5f5f5f60608486031215610e4a57610e49610d09565b5b5f610e5786828701610d53565b9350506020610e6886828701610d53565b9250506040610e7986828701610d86565b9150509250925092565b5f60ff82169050919050565b610e9881610e83565b82525050565b5f602082019050610eb15f830184610e8f565b92915050565b5f60208284031215610ecc57610ecb610d09565b5b5f610ed984828501610d53565b91505092915050565b5f5f60408385031215610ef857610ef7610d09565b5b5f610f0585828601610d53565b9250506020610f1685828601610d53565b9150509250929050565b7f4e487b71000000000000000000000000000000000000000000000000000000005f52602260045260245ffd5b5f6002820490506001821680610f6457607f821691505b602082108103610f7757610f76610f20565b5b50919050565b7f4e6f74206f776e657200000000000000000000000000000000000000000000005f82015250565b5f610fb1600983610c83565b9150610fbc82610f7d565b602082019050919050565b5f6020820190508181035f830152610fde81610fa5565b9050919050565b7f496e76616c6964206275726e65720000000000000000000000000000000000005f82015250565b5f611019600e83610c83565b915061102482610fe5565b602082019050919050565b5f6020820190508181035f8301526110468161100d565b9050919050565b7f496e73756666696369656e742062616c616e63650000000000000000000000005f82015250565b5f611081601483610c83565b915061108c8261104d565b602082019050919050565b5f6020820190508181035f8301526110ae81611075565b9050919050565b7f4e487b71000000000000000000000000000000000000000000000000000000005f52601160045260245ffd5b5f6110ec82610d67565b91506110f783610d67565b925082820390508181111561110f5761110e6110b5565b5b92915050565b7f496e76616c69642073656e6465720000000000000000000000000000000000005f82015250565b5f611149600e83610c83565b915061115482611115565b602082019050919050565b5f6020820190508181035f8301526111768161113d565b9050919050565b7f417070726f76652066726f6d207a65726f2061646472657373000000000000005f82015250565b5f6111b1601983610c83565b91506111bc8261117d565b602082019050919050565b5f6020820190508181035f8301526111de816111a5565b9050919050565b7f417070726f766520746f207a65726f20616464726573730000000000000000005f82015250565b5f611219601783610c83565b9150611224826111e5565b602082019050919050565b5f6020820190508181035f8301526112468161120d565b9050919050565b7f4368616c6c656e6765333a20696e73756666696369656e7420616c6c6f77616e5f8201527f6365000000000000000000000000000000000000000000000000000000000000602082015250565b5f6112a7602283610c83565b91506112b28261124d565b604082019050919050565b5f6020820190508181035f8301526112d48161129b565b9050919050565b7f496e76616c6964207265636569766572000000000000000000000000000000005f82015250565b5f61130f601083610c83565b915061131a826112db565b602082019050919050565b5f6020820190508181035f83015261133c81611303565b9050919050565b5f61134d82610d67565b915061135883610d67565b92508282019050808211156113705761136f6110b5565b5b9291505056fea264697066735822122030496c725f8be1673aa4a6daf977b44db6b1fc4dc1044f3da6780743ac9528bc64736f6c634300081c0033","linkReferences":{}},"methodIdentifiers":{"allowance(address,address)":"dd62ed3e","approve(address,uint256)":"095ea7b3","balanceOf(address)":"70a08231","burn(address,uint256)":"9dc29fac","decimals()":"313ce567","name()":"06fdde03","symbol()":"95d89b41","totalSupply()":"18160ddd","transfer(address,uint256)":"a9059cbb","transferFrom(address,address,uint256)":"23b872dd"},"id":18}